:100000000010001017010000E9000000EB000000E4
:1000100000000000000000000000000000000000E0
:10002000000000000000000000000000ED000000E3
:100030000000000000000000EF000000F1000000E0
:10004000F3000000F3000000F3000000F3000000E4
:10005000F3000000F3000000F3000000F3000000D4
:10006000F3000000F30000000000000000000000AA
:100070000000000000000000F3000000F30000009A
:10008000F3000000F3000000350A0000F300000058
:10009000F300000075090000B5090000F30000003E
:1000A000F3000000F3000000F3000000F300000084
:1000B0000000000000000000F3000000000000004D
:1000C000984D0000000000106C000000984D0000EA
:1000D00000400020000000006C000010CC03000075
:1000E0000040002000000000FEE7FEE7FEE7FEE71C
:1000F000FEE7FEE7002310B5934200D310BD1C5865
:100100005C500433F8E700231A008B4200D3704799
:100110001A500433F9E710B50C4B0D4A1C009342FA
:1001200007D30C4B9C420AD301F072F904F0F2F8A9
:10013000FEE707CB0C34FFF7DDFF2300EDE7616836
:100140002068FFF7E0FF0834EBE7C046C00000007E
:10015000D8000000E800000080B582B000AF0200C7
:10016000FB1D1A70064BFA1D127811001F220A405F
:10017000012191400A001A60C046BD4602B080BD10
:1001800000E100E080B582B000AF0200FB1D1A70F4
:10019000074AFB1D1B7819001F230B4001219940C2
:1001A0000B0019008023D150C046BD4602B080BD6F
:1001B00000E100E080B586B000AFF860B9607A6019
:1001C000BB687B617B68032B07D17B691B8A9BB271
:1001D000012293439AB27B691A8200231800BD461C
:1001E00006B080BD90B587B000AFF860B9607A60A6
:1001F000BB687B617B68022B02D0042B42D05FE09E
:10020000324B1B681B685C6C7B699A68FB68012138
:100210001800A04703009AB27B69DA817B695B8A88
:100220009BB21A000423134014D07B695B8A9BB2F3
:10023000042293439AB27B695A827B69DB89002B43
:100240003BD07B695B8A9BB2022213439AB27B69E3
:100250005A8232E07B695B8A9BB21A000823134002
:100260002BD07B695B8A9BB2082293439AB27B694D
:100270005A827B695B8A9BB2012213439AB27B69E3
:100280005A821AE07B695B8A9BB21A0006231340EC
:1002900015D10E4B1B681B689C6C7B699A68802388
:1002A0009B00F8680121A0477B695B8A9BB204220E
:1002B00013439AB27B695A8201E0C04600E0C0460F
:1002C00000231800BD4607B090BDC046680000106E
:1002D00080B584B000AF78603960054BFB60FB6887
:1002E000802252001A8200231800BD4604B080BD4F
:1002F0002404001090B599B000AFF860B9607A603E
:100300000023FB653E4BFA681A601023FB18482255
:100310000021180004F008F87B685A681023FB18C5
:100320001A607B689A681023FB185A60BB68DB6808
:100330000221180000F050FB02001023FB189A6005
:10034000BB68DB680A21180000F046FB020010239E
:10035000FB18DA601023FB182A4ADA632A4B1B6861
:100360005B695B68294A10217918F868984703008F
:10037000FB65FB6D002B3DD11023FB181B681A0099
:100380001F4B9A601023FB181B68802292009A185A
:100390001023FB181A601023FB185B681C4A9A187C
:1003A0001023FB185A600523BB65174B1B685B685D
:1003B0005C68134B174AB96DF868A0470300FB65EA
:1003C000FB6D002B0CD10223BB650F4B1B685B68D8
:1003D0005C680B4B104AB96DF868A0470300FB65D9
:1003E0001023FB181A687B685A601023FB185A68A0
:1003F0007B689A60FB6D1800BD4619B090BDC04681
:1004000024040010D102000068000010280400102D
:1004100000FEFFFFB5010000E501000080B584B0DB
:1004200000AF78603960244BBB600E23FB180022BC
:100430001A80BB68DB89002B36D0BB68DB891A00C9
:100440003B689A4200D91A000E23FB181A80BB6839
:1004500099680E23FB181A887B68180003F060FF68
:10046000BB689A890E23FB181B88D3189AB2BB6805
:100470009A811620FFF786FEBB689A89BB68DB89E4
:100480009A420ED3BB685B8A9BB2022293439AB214
:10049000BB685A82BB680022DA81BB68DA89BB6814
:1004A0009A811620FFF758FE0E23FB181B881800B0
:1004B000BD4604B080BDC0462404001090B585B090
:1004C00000AF78603960194BBB600023FB60BB68EC
:1004D0001B8A9BB21A0080235B00134020D0BB68AC
:1004E0001B8A9BB21A000123134019D1BB681B8AD7
:1004F0009BB2012213439AB2BB681A821620FFF7FF
:1005000041FE0B4B1B681B681C6DBB6818683B6881
:100510007A688221A0470300FB601620FFF71CFECB
:10052000FB681800BD4605B090BDC046240400100D
:100530006800001080B582B000AF0200FB1D1A7089
:10054000064BFA1D127811001F220A40012191402A
:100550000A001A60C046BD4602B080BD00E100E05E
:1005600080B582B000AF0200FB1D1A70084AFB1D67
:100570001B7819001F230B40012199400B00190023
:10058000C0235B00D150C046BD4602B080BDC0460E
:1005900000E100E0B0B582B000AF02003960FB1DA1
:1005A0001A70FB1D1B787F2B32D92F4CFB1D1B783B
:1005B0001A000F231340083B99082B4AFB1D1B7898
:1005C00018000F230340083B9B0806339B00D318F9
:1005D00004331B68FA1D1278100003220240D20077
:1005E000FF2090400200D2431A403B689B01FF204D
:1005F0001840FB1D1B781D0003232B40DB00984097
:1006000003001A438B1D9B00E31804331A6027E094
:10061000164CFB1D1B785BB29B081449FA1D12781F
:1006200052B29208C03292005258F91D097808005F
:1006300003210140C900FF2088400100C943114047
:100640003A689201FF201040FA1D1278150003222B
:100650002A40D200904002000A43C0339B001A5146
:10066000C046BD4602B0B0BD00ED00E000E100E0D4
:1006700080B582B000AF0200FB1D1A700749074A1F
:100680008023D358FA1D12780120904002001343B2
:1006900080228B50C046BD4602B080BD0080044021
:1006A00080B582B000AF78600A00FB1C1A707B68CE
:1006B0001B68FA1C127811000F220A400121914098
:1006C0000A0013405A1E9341DBB21800BD4602B027
:1006D00080BD80B582B000AF78600A00FB1C1A7044
:1006E000FB1C1B785BB201229A4013001A007B6846
:1006F0001A60C046BD4602B080BD80B582B000AF72
:1007000078607B685B6801221A437B685A60C04648
:10071000BD4602B080BD80B582B000AF78607B6816
:100720005B68012293431A007B685A60C046BD464D
:1007300002B080BD80B584B000AFF8607A600B2352
:10074000FB180A1C1A700B23FB1800229A56FB6830
:10075000063292007968D150C046BD4604B080BDD3
:1007600080B582B000AF78600A00FB1C1A707B680D
:100770005969FB1C00229A5613005B009B1801224A
:100780009A4013000A001A437B685A61C046BD466E
:1007900002B080BD80B582B000AF78607B68002277
:1007A0001A617B681A697B68DA60C046BD4602B090
:1007B00080BD80B582B000AF78607B6880221A630C
:1007C000C046BD4602B080BD80B582B000AF786043
:1007D00039607B685A683B681A437B685A60C04638
:1007E000BD4602B080BD80B582B000AF7860396090
:1007F0007B683A689A60C046BD4602B080BD80B54D
:1008000082B000AF786039607B683A68DA60C046D1
:10081000BD4602B080BD90B583B000AF78600C00DB
:1008200010001900FB1C221C1A70BB1C021C1A7041
:100830007B1C0A1C1A70FB1C1A78BB1C1B78791CC9
:100840000878796852018A18011CD154C046BD4607
:1008500003B090BD80B582B000AF78600800110091
:10086000FB1C021C1A70BB1C0A1C1A70FB1C1A7899
:10087000BB1C1B78796852018A18D35CDBB25A1E04
:100880009341DBB21800BD4602B080BD80B582B096
:1008900000AF786008001100FB1C021C1A70BB1C22
:1008A0000A1C1A70FB1C1A78FB1C19787B688020C4
:1008B0000001844661448900C958BB1C1B78012093
:1008C0009840030019437B688020000184466244FD
:1008D0009200D150C046BD4602B080BD80B582B006
:1008E00000AF786008001100FB1C021C1A70BB1CD2
:1008F0000A1C1A70FB1C1A78FB1C19787B68802074
:100900000001844661448900CB58B91C0978012054
:1009100088400100C94319407B688020000184465B
:1009200062449200D150C046BD4602B080BDFFFF78
:1009300080B500AF044B1B8A9BB21A0080235B007A
:1009400013401800BD4680BD2404001080B500AFE0
:100950000121002000F07CFF0E20FFF789FE1B2004
:10096000FFF786FE8023DB00180001F05FFAC04627
:10097000BD4680BD80B500AF094B180001F0D0FA2C
:10098000084B00221A70064B1800FFF7B6FE064A05
:10099000064B0748190001F081FCC046BD4680BDEA
:1009A00000400140940100106C0000108000001015
:1009B0000080004080B500AF054B1B681B68DA68FB
:1009C000044B1B6818009047C046BD4680BDC0461A
:1009D000680000109801001080B586B000AF786004
:1009E000396000233B617B687B617B68FB6015E0BD
:1009F0007B695B78042B07D17B693B613B695B7941
:100A00001A003B689A420ED000233B617B691B7839
:100A10001A007B69D318FB60FB687B617B691B78DC
:100A2000002BE5D100E0C0463B691800BD4606B08A
:100A300080BDFFFF80B500AF0A4B01211800FFF712
:100A40002FFE031E0BD0074B01211800FFF741FEBC
:100A5000054B01221A70034B1800FFF75CFEC046DD
:100A6000BD4680BD004001409401001090B5AFB07C
:100A700000AF0023B422BA1813600023B022BA18C2
:100A800013600023AC22BA1813603C23FB18DE4A23
:100A900013CA13C31168196092889A803423FB1813
:100AA000DA4A03CA03C32023FB18D94A13CA13C363
:100AB0001168196092889A800823FB18D54A13CAD6
:100AC00013C303CA03C312781A70A023DB051800EE
:100AD00000F078FFD04810231122002100F07DFFA4
:100AE000A023DB05112200211800FFF7F7FEA02349
:100AF000DB05102201211800FFF7C8FEA023D8054E
:100B0000002311220121FFF786FEFFF71FFF642358
:100B1000FB1844220021180003F006FC6423FB1894
:100B2000BE4A1A606423FB1805221A736423FB185B
:100B3000BB4A5A606423FB18802212019A6050233A
:100B4000FB18B84A1A605023FB18B74A5A60502362
:100B5000FB18B64ADA605023FB18B44A9A60502357
:100B6000FB1800221A61B24B1B681B685B68642289
:100B7000BA1850217918AF4898470300B422BA1820
:100B80001360B423FB181B68002B3BD1A94B1C68D6
:100B90005023FB18DB6803211800FFF71DFF6423B7
:100BA000FB18083319006423FB181A1D0B00010001
:100BB000200000F097FA0300B422BA181360B4239F
:100BC000FB181B68002B1DD19A4B1B686422BA18B6
:100BD000502179181800FFF78DFB0300B422BA18D2
:100BE0001360B423FB181B68002B0BD11620FFF7F2
:100BF000A1FC8F4B1B681B689A688E4B1B680121F8
:100C000018009047844801231222002100F0E5FEDD
:100C1000814801231322002100F0DFFE864B1800DB
:100C200001F062FA96231B02834A1900100001F0BA
:100C300076FA814B03211800FFF7E1FD7E4B8121FD
:100C40001800FFF7D0FD7C4B1800FFF7B2FD7B4981
:100C50007B488023012200F02EFF7A497A488023C6
:100C6000012200F028FF744B05211800FFF7ACFDAE
:100C700001211520FFF78EFC1520FFF75BFC734B5D
:100C8000180001F03DF900F073FE0300A822BA1825
:100C900013606E4B180001F043F96C4B01211800F2
:100CA000FFF75EFDA823FB181B686421180003F002
:100CB000BAFD03001A00654B01211800FFF73AFD49
:100CC0001220FFF74DFC1220FFF734FCB423FB1871
:100CD0001B68002B00D0DBE000F088FAFFF728FE4D
:100CE000031E03D10023B022BA181360FFF720FEC1
:100CF000031E18D0B023FB181B68002B13D1C0466D
:100D0000FB1D01211800FFF789FB031EF8D14C4B96
:100D10001800FFF73FFD4C4B1800FFF73BFD012388
:100D2000B022BA181360A023DB051122002118009D
:100D3000FFF790FD03001A0001235340DBB2002BA4
:100D400045D0434B1B78012B0AD1424A3C493A48D3
:100D5000802301F091FA0300AC22BA18136003E07B
:100D60000023AC22BA181360AC23FB181B68002BBD
:100D700000D172E0364B00221A70AC23FB181B68BE
:100D8000DAB2344B1100180000F0A8FA0300012B6E
:100D900004D0022B0AD0002B5ED00FE03C23FA18BF
:100DA00029492548122301F031FA56E02023FA1888
:100DB00025492148122301F029FA4EE00823FA18A8
:100DC00021491D48152301F021FAC04645E0214A7A
:100DD0001B491948802301F04FFA0300AC22BA18CE
:100DE0001360B023FB181B68002B36D0AC23FB1814
:100DF0001B68002B31D0AC23FB181A68154B11006F
:100E00001800FFF75BFB28E0AC4A0000C04A000076
:100E1000C84A0000DC4A00000040044000000840CE
:100E200000400020E4490000F849000000000010E4
:100E3000680000109801001000800040940000102D
:100E400080000010140100106C00001000400140F0
:100E5000940100109C010010C046B023FB181B68D1
:100E6000002B15D00B4B80211800FFF7D7FA030099
:100E7000AC22BA181360AC23FB181B68002B07D0F8
:100E8000AC23FB181B68034A0349044801F0BEF970
:100E900030BF1BE79C0100106C0000100080004078
:100EA00080B584B000AF78607B68FB60FB68ED22A2
:100EB0009B5C5A1E9341DBB21800BD4604B080BD56
:100EC00080B582B000AF78600A00FB1C1A701A4B24
:100ED00002225A727B681A78174B9A727B68591CE7
:100EE000164B0622180003F01BFA134B20229B5CC2
:100EF00002221343D9B2104B20229954FB1C1B78B9
:100F0000002B09D00C4B22229B5C02221343D9B246
:100F1000094B2222995408E0074B22229B5C0222B3
:100F20009343D9B2044B2222995400F05FF9C04692
:100F3000BD4602B080BDC0461C0200102802001051
:100F400080B582B000AF78600B4B03229A74796849
:100F50000A4B0C22180003F0E3F9074B20229B5C9C
:100F600004221343D9B2044B2022995400F03EF9D5
:100F7000C046BD4602B080BD1C0200102F0200100A
:100F800080B500AFC046BD4680BDFFFF80B582B0D2
:100F900000AF78600A00FB1C1A70174B01221A710F
:100FA0007968164B0422180003F0BAF9124B20227C
:100FB0009B5C01221343D9B20F4B20229954FB1C96
:100FC0001B78002B09D00C4B22229B5C012213437F
:100FD000D9B2094B2222995408E0074B22229B5C8C
:100FE00001229343D9B2044B2222995400F0FEF817
:100FF000C046BD4602B080BD1C0200102102001098
:1010000080B584B000AFF860B9607A603B60BB68BF
:10101000DB78012B03D026DB032B24DC21E0FFF758
:10102000AFFFBB689B78022B0AD0032B0FD0012B9C
:1010300013D17B680E4A1A603B6805221A800FE0C4
:101040007B680C4A1A603B6809221A8008E07B68BA
:10105000094A1A603B680D221A8001235B4203E0B3
:1010600001E0064B00E000231800BD4604B080BD3F
:1010700020020010250200102E02001003000400C0
:1010800080B584B000AFF860B9607A601A00BB1C0C
:101090001A80BB1C1B88002B01D1002307E0BB6812
:1010A000DB78013B022B01D8034B00E00023180042
:1010B000BD4604B080BDC0460300040080B584B0C6
:1010C00000AFF860B9607A607B68032B03D1044BF2
:1010D0000022DA77C04600231800BD4604B080BD68
:1010E0001C02001080B596B000AFF860B9607A605D
:1010F0003B6000237B65BB68002B03D0BB685B793A
:10110000032B02D001235B4251E000F0BDF91C2308
:10111000FB1838220021180003F006F91C23FB18E5
:1011200001221A727B681A681C23FB181A603B683C
:101130001A681C23FB185A601C23FB18BA68DA6073
:101140001C23FB181C4A5A611C23FB181B4A9A617A
:101150001C23FB181A4A9A621A4B1A881423FB188C
:101160001A801423FB1800229A701423FB18164AC5
:101170005A601C23FB181422BA181A61134B1B68FF
:101180001B695B681C22B918FA68100098470300B5
:101190007B651C23FB181A687B681A601C23FB18EC
:1011A0005A683B681A600A4BFA681A607B6D18002F
:1011B000BD4616B080BDC046011000008110000081
:1011C000BD100000E0490000144900006800001054
:1011D0001C02001080B500AF034B1B68180001F023
:1011E000F9FDC046BD4680BD1C020010B0B500AF81
:1011F000354B1B681800FFF753FE031E5FD0324BC0
:10120000DB7F002B5ED1FFF7BBFE2F4B20229B5CC8
:101210001A000123134016D02B4B0122DA772B4BF7
:101220001B681B681C6D284B1868294A05238121FF
:10123000A047254B20229B5C01229343D9B2224B2D
:10124000202299543EE0204B20229B5C1A0002236E
:10125000134016D01C4B0122DA771C4B1B681B680D
:101260001C6D194B18681B4A09238121A047164B96
:1012700020229B5C02229343D9B2134B2022995423
:1012800020E0114B20229B5C1A000423134019D04C
:101290000D4B0122DA770D4B1B681B681C6D0A4B46
:1012A00018680D4A0D238121A047074B20229B5C23
:1012B00004229343D9B2044B2022995402E0024BFA
:1012C0000022DA77BD46B0BD1C0200106800001095
:1012D00020020010250200102E02001080B586B0FA
:1012E00000AF78600A00FB1C1A70FB1C1B78012BF6
:1012F00001D8012383E07B681B78433B162B00D980
:101300007AE09A00404BD3181B689F46FB1C1B7861
:10131000062B01D8012372E07B68013300211800FD
:10132000FFF7CEFD6AE0FB1C1B78062B01D80123DA
:1013300065E07B68013301211800FFF7C1FD5DE026
:10134000FB1C1B78032B01D8012358E07B68013379
:1013500000211800FFF71AFE50E0FB1C1B78032B3E
:1013600001D801234BE07B68013301211800FFF70E
:101370000DFE43E0FB1C1B780B2B01D801233EE044
:101380007B6801331800FFF7DBFD37E00823FB180B
:101390001B225A700823FB1801211800FFF790FD4B
:1013A0000823FB1801221A700823FB18F6225A7032
:1013B0000823FB180A229A700823FB180121180041
:1013C000FFF7E4FD0823FB181800FFF7B9FD15E04F
:1013D000FB1C1B78012B01D8012310E07B68013333
:1013E0001B78232B06D87B685A78084B9A75FFF731
:1013F000F1FE03E0012302E0022300E000231800D5
:10140000BD4606B080BDC046F44A00000000001092
:1014100080B500AF00F088F9C046BD4680BD80B5FC
:1014200082B000AF786008001100FB1C021C1A702B
:10143000BB1C0A1C1A70FB1C1A78FB1C19787B68F1
:1014400080200001844661448900CB58B91C09788A
:10145000012088400100C94319407B6880200001B9
:10146000844662449200D150C046BD4602B080BD61
:1014700080B584B000AFF860B9607A607B6818000E
:10148000BD4604B080BDFFFF80B500AF21481023EA
:101490001622012100F0A1FA1E4810231422012176
:1014A00000F09BFA1B4810231722012100F095FA47
:1014B000184810231522012100F08FFA1548102337
:1014C0001322012100F089FAA023DB051622012155
:1014D0001800FFF7A4FFA023DB0514220121180048
:1014E000FFF79DFFA023DB05172201211800FFF75E
:1014F00096FFA023DB05152201211800FFF78FFFBF
:10150000A023DB05132201211800FFF788FFC04646
:10151000BD4680BD0040044080B584B000AF0200ED
:10152000FB1D1A70074B1B6903229343FB60054B9D
:10153000FA1D1178FA680A431A61C046BD4604B024
:1015400080BDC04600C0034080B582B000AF02003D
:10155000FB1D1A70BB1D0A1C1A70084BFA1D12786D
:101560001F211140BA1D12785201602002400A4327
:101570009A60C046BD4602B080BDC04600800440AF
:1015800080B500AF044BDB68012213405A1E934123
:10159000DBB21800BD4680BD0080044080B582B03B
:1015A00000AF0200FB1D1A70BB1D0A1C1A70084B0D
:1015B000FA1D12781F211140BA1D127852016020C5
:1015C00002400A431A61C046BD4602B080BDC04613
:1015D0000080044080B500AF044B5B6901221340DA
:1015E0005A1E9341DBB21800BD4680BD0080044006
:1015F00080B582B000AF7860034B7A689A67C046C6
:10160000BD4602B080BDC0460080044080B582B0B7
:1016100000AF0200FB1D1A700749074A8023D35808
:10162000FA1D1278012090400200134380228B5053
:10163000C046BD4602B080BD0080044080B582B087
:1016400000AF202000F0F2FB00237B6002E07B680B
:1016500001337B607B68FF2BF9DD012000F0B6F8D9
:10166000802000F0C1FB01210320FFF76DFF8020E7
:1016700000F0DCFBC046FFF783FF03001A000123E4
:101680005340DBB2002BF6D10120FFF7B1FF02205F
:10169000FFF742FF032000F0C5F8012000F0ACF88E
:1016A00001210320FFF77AFF80235B00180000F080
:1016B000BDFBC046FFF78EFF03001A000123534015
:1016C000DBB2002BF6D1C046BD4602B080BDFFFFA5
:1016D00090B583B000AF1020FFF798FF00237B6028
:1016E00017E00F4B7A689200D15C0D4A7B689B0033
:1016F000D318013318780A4A7B689B00D318023349
:101700001B88084C0200200000F067F97B68013359
:101710007B607B68082BE4D9C046BD4603B090BD12
:10172000544B00000040044080B500AFFFF786FF37
:10173000FFF7CEFFC046BD4680BDFFFF80B500AFBE
:10174000024B1B681800BD4680BDC046504B0000D0
:1017500080B500AF014B1800BD4680BD001BB7002F
:1017600080B584B000AF78607B685B09DAB20F2384
:10177000FB180F210A401A707B681F221340BB60C0
:101780000F23FB181A78074B9200D258BB6801331D
:101790005B001900100003F046F803001800BD4676
:1017A00004B080BD784B000080B584B000AF786095
:1017B00039607B681F2213400133FB603B68FA6885
:1017C00053431800BD4604B080BDFFFF80B582B012
:1017D00000AF0200FB1D1A70064BFA1D12781A6446
:1017E000044B00225A64034B01225A64C046BD4692
:1017F00002B080BD0080044080B582B000AF02001E
:10180000FB1D1A70064BFA1D12789A64044B0022D5
:10181000DA64034B0122DA64C046BD4602B080BDE3
:101820000080044080B582B000AF0200FB1D1A703A
:10183000064BFA1D12781A67044B00225A67034BB5
:1018400001225A67C046BD4602B080BD00800440F8
:1018500080B582B000AF02003960FB1D1A700A49E2
:10186000FB1D1B78C0228B50074AC4230021D15096
:10187000054AC4230121D1500349C8223B688B503B
:10188000C046BD4602B080BD0080044080B500AFB8
:10189000044B5B6A1800FFF763FF03001800BD46A6
:1018A00080BDC0460080044080B582B000AF0D4BC3
:1018B0001B6CDBB21A000323134002D0012B05D0AE
:1018C00009E0FFF745FF03007B6006E0FFF736FF06
:1018D00003007B6001E000237B607B681800BD464D
:1018E00002B080BD00800440B0B500AF064B9C68DC
:1018F000FFF7DAFF030019002000FFF755FF030090
:101900001800BD46B0BDC0460080044080B582B01E
:1019100000AF00237B60154B1B6FDBB21A00032363
:101920001340012B0DD002DC002B05D018E0022B58
:101930000CD0032B0FD013E0FFF70AFF03007B60EE
:101940000EE0FFF7B1FF03007B6009E0FFF79EFFA9
:1019500003007B6004E0FFF7C7FF03007B60C04625
:101960007B681800BD4602B080BDC04600800440C0
:1019700080B500AFFFF7CAFF0200054B9B6F19004F
:10198000100002F050FF03001800BD4680BDC046A5
:101990000080044080B582B000AF0200FB1D1A70C9
:1019A0000749074A8023D358FA1D12780120904036
:1019B0000200134380228B50C046BD4602B080BD5A
:1019C0000080044080B582B000AF78600620FFF749
:1019D000E1FFC046BD4602B080BD80B584B000AF17
:1019E000F860080011007B600B23FB18021C1A70C2
:1019F0000A23FB180A1C1A700B23FB181B78002BF8
:101A000007D10A23FB181A78FB6892007968D15035
:101A100007E00A23FB181A78FB68183292007968ED
:101A2000D150C046BD4604B080BD80B582B000AF85
:101A300078607B680C331A687B6810331B68D31A94
:101A40001800BD4602B080BD90B583B000AF78608D
:101A50007B685C687B681800FFF7E7FF0300E31A08
:101A60001800BD4603B090BD80B582B000AF78606D
:101A70007B681800FFF7D9FF02007B685B68D0170E
:101A8000D90F9A4248410300DBB21800BD4602B0AC
:101A900080BD80B582B000AF78607B680C331A6877
:101AA0007B6810331B68D31A5A425341DBB21800CB
:101AB000BD4602B080BD80B584B000AFF860B960AB
:101AC0007A603B60FB68BA681A60FB683A685A60E3
:101AD000FB687A689A60FB6800221A61FB681A69E1
:101AE000FB68DA6001231800BD4604B080BD80B5F4
:101AF00084B000AF786039607B681B68FB607B68EE
:101B00001800FFF7B1FF031E01D0002319E07B6826
:101B1000DA687B685B68013B1A407B689B685343CB
:101B2000FA68D318FB607B689B681A003968FB6809
:101B3000180002F0F5FB7B68DB685A1C7B68DA60F2
:101B400001231800BD4604B080BD80B588B000AF49
:101B5000F860B9607A60FB681B68BB61FB681800BD
:101B6000FFF782FF031E01D000237AE0FB68180014
:101B7000FFF76AFF03007B617B69FB61FB68DA6842
:101B8000FB685B68013B1A40FB69D218FB685B6825
:101B90009A420AD3FB685B681900FB68DA68FB6845
:101BA0005B68013B1340CB1AFB617A69FB69D31A6E
:101BB0007B61FA697B68934200DD1300FB617A6800
:101BC000FB69D31A7B607A697B68934200DD13005E
:101BD0007B617A687B69D31A7B60FB68DA68FB6893
:101BE0005B68013B1A40FB689B685343BA69D31892
:101BF000BB61FB689B68FA6953431A00B968BB690B
:101C0000180002F08DFBFB68DA68FB69D218FB68EC
:101C1000DA60FB681A68FB68D968FB685B68013B9F
:101C20001940FB689B684B43D318BB61FB689B68FA
:101C3000FA6953431A00BB689B18BB60FB689B683A
:101C40007A6953431A00B968BB69180002F068FB4F
:101C5000FB68DA687B69D218FB68DA60FA697B692D
:101C6000D3181800BD4608B080BD80B584B000AF61
:101C7000786039607B681B68FB607B681800FFF741
:101C800008FF031E01D0002319E07B681A697B68F6
:101C90005B68013B1A407B689B685343FA68D31822
:101CA000FB607B689B681A00F9683B68180002F0CB
:101CB00037FB7B681B695A1C7B681A61012318007B
:101CC000BD4604B080BD80B588B000AFF860B96093
:101CD0007A60FB681B68BB61FB681800FFF7D9FEE0
:101CE000031E01D000237AE0FB681800FFF79DFE79
:101CF00003007B617B69FB61FB681A69FB685B68B9
:101D0000013B1A40FB69D218FB685B689A420AD310
:101D1000FB685B681900FB681A69FB685B68013B3C
:101D20001340CB1AFB617A69FB69D31A7B61FA69AC
:101D30007B68934200DD1300FB617A68FB69D31A6C
:101D40007B607A697B68934200DD13007B617A686F
:101D50007B69D31A7B60FB681A69FB685B68013B8F
:101D60001A40FB689B685343BA69D318BB61FB6890
:101D70009B68FA6953431A00B969BB68180002F0FE
:101D8000CFFAFB681A69FB69D218FB681A61FB6815
:101D90001A68FB681969FB685B68013B1940FB68BE
:101DA0009B684B43D318BB61FB689B68FA6953433C
:101DB0001A00BB689B18BB60FB689B687A69534339
:101DC0001A00B969BB68180002F0AAFAFB681A6920
:101DD0007B69D218FB681A61FA697B69D31818000D
:101DE000BD4608B080BDFFFF80B584B000AF78600D
:101DF0000C4A8E239B00D3580B4A1340FB607B6830
:101E0000094A1340FA681343FB600649FB68E8225D
:101E100012021A438E239B00CA50C046BD4604B02E
:101E200080BDC04600800440FF05000080B584B03E
:101E300000AF78600C4A8E239B00D3580B4A1340A6
:101E4000FB607B68094A1340DA43FB681340FB6080
:101E50000549FB68E82212021A438E239B00CA50F0
:101E6000C046BD4604B080BD00800440FF050000B0
:101E700080B582B000AF0200FB1D1A700749074A07
:101E80008023D358FA1D127801209040020013439A
:101E900080228B50C046BD4602B080BD0080044009
:101EA00080B584B000AF78607B68124A934204D159
:101EB0000F23FB180A221A7015E07B680E4A934222
:101EC00004D10F23FB1807221A700CE07B680B4A21
:101ED000934204D10F23FB1808221A7003E00F234A
:101EE000FB1809221A700F23FB181B781800BD4637
:101EF00004B080BD0080014000C0004000000140EF
:101F000080B582B000AF78607B681800FFF7C8FF2B
:101F100003001800FFF7ACFFC046BD4602B080BD0D
:101F200080B584B000AF78607B685B68FB607B68DD
:101F300000225A607B6801229A607B6802225A6004
:101F4000C0467B689B68002BFBD17B68FA685A60AF
:101F5000C046BD4604B080BD80B582B000AF02006F
:101F6000FB1D1A700749074A8023D358FA1D1278BF
:101F7000012090400200134380228B50C046BD4692
:101F800002B080BD0080044080B582B000AF7860B0
:101F9000034998227B688B50C046BD4602B080BD85
:101FA0000080044080B582B000AF78607B680C335D
:101FB0001A687B6810331B68D31A5A425341DBB24C
:101FC0001800BD4602B080BD80B582B000AF786019
:101FD0000A00FB1C1A70FB1C1A787B681A60C0464A
:101FE000BD4602B080BD80B582B000AF78607B682E
:101FF0001B68DBB21800BD4602B080BD80B582B060
:1020000000AF786039607B685A683B681A437B6828
:102010005A60C046BD4602B080BD80B582B000AFF8
:10202000786039607B685B683A68D2431A407B68A5
:102030005A60C046BD4602B080BD80B582B000AFD8
:10204000786039607B683A689A60C046BD4602B0E5
:1020500080BD80B582B000AF786039607B683A6837
:10206000DA60C046BD4602B080BD80B582B000AF28
:1020700078607B68DB6880221A437B68DA60C04640
:10208000BD4602B080BD80B582B000AF78607B688D
:10209000DB68802293431A007B68DA60C046BD4645
:1020A00002B080BD80B582B000AF7860080011003A
:1020B000FB1C021C1A70BB1C0A1C1A70FB1C1A7831
:1020C0007B681A60BB1C1A787B685A60C046BD46A4
:1020D00002B080BD80B582B000AF78607B685B697C
:1020E0001800BD4602B080BD80B582B000AF7860F8
:1020F0000C20FFF731FF0120FFF746FF7B68072127
:102100001800FFF79AFF7B6803211800FFF7A1FF73
:102110007B6810229A62C046BD4602B080BD80B581
:1021200086B000AF78603960FFF7F0FB03007B6199
:102130003B681B011900786902F075FB03003B61E5
:102140003B691B0AFB60FB681B023A69D31ABB6040
:102150007B681800FFF789FFBB68D9B2FB68DAB269
:102160007B681800FFF79EFF7B681800FFF78BFF66
:102170003969786902F057FB03001800BD4606B0C4
:1021800080BD80B584B000AF786039600FE07B68B7
:102190001800FFF728FF03001A000F23FB181A701E
:1021A0000F23FA183B6811001800FFF7A0FC7B68AA
:1021B0001800FFF78FFF020001231340E7D1C0464C
:1021C000BD4604B080BD80B584B000AF7860396092
:1021D00007E00F23FB181A787B6811001800FFF73F
:1021E000F3FE7B681800FFF775FF02002023134001
:1021F00008D00F23FA183B6811001800FFF735FDCF
:10220000031EE6D1C046BD4604B080BD80B586B091
:1022100000AFF860B9607A603B607B687B61FB6807
:1022200002211800FFF7F9FE3A687969BB681800C7
:10223000FFF78BFC03003B61BA68FB6811001800D4
:10224000FFF7C1FF7A693B69D1183A683B69D31A35
:102250001A00BB681800FFF778FC03001A003B69FE
:102260009B183B61FB6802211800FFF7C7FE3B6922
:102270001800BD4606B080BD80B584B000AFF860E0
:10228000B9607A603B603A687968BB681800FFF70C
:102290001AFD03001800BD4604B080BD80B584B0AF
:1022A00000AFF860B9607A60FB685B680222134097
:1022B00010D07A68FB6811001800FFF784FF7B6874
:1022C0001800FFF76FFE031E04D0FB680221180000
:1022D000FFF7A3FEBA68FB6811001800FFF751FF73
:1022E000C046BD4604B080BD00B5B2225100435C7B
:1022F000DA0601D0044800BD011C8E22ED315300E6
:10230000C1500020F7E7C046010004007047C046F6
:102310007047C04600B5B2235A00815CCB06DB0E85
:10232000012B30D0022B0AD0002B01D0214800BD58
:10233000011C8E23EE315A0081500020F7E7B421B2
:102340004B00C35C8F22134080221A422BD1012103
:102350009940ED22825C002A01D11A07E6D182233E
:102360005A0083580B42E1D084235A0083589222AA
:1023700019404B1E99415300C152C1188E235A0077
:1023800081500020D3E7ED22815C0029CED0B42318
:102390005900EB22415C835C9942C7D29221002212
:1023A0004B00C252E9E70F21194052028A40111C2A
:1023B000CFE7C0460100040030B5B2246100031C21
:1023C000405CC20607D1414D5A5D022A05D0032A5E
:1023D00038D0012A60D03E4830BDB320FC224500F1
:1023E0009A585C5D1178002C22D0601E01250540B2
:1023F000002963D10120A0421AD0002D04D0002969
:102400000DD10130A04213D0002905D0D1789578A4
:10241000090229435218117801300029F1D0D178EE
:10242000957809022943521801301178A042EBD166
:102430000029D0D08E2568001A509478D2781102E5
:1024400021432FE0B3225400F42159581C5D0A782F
:10245000002C1AD0601E01250540002A2BD1012036
:10246000A04212D0002D04D0002A09D10130A04290
:102470000BD0002A01D089180A780130002AF5D043
:10248000891801300A78A042F3D1002AA3D08E2403
:1024900065005951097805E0F0248E2118594A0049
:1024A00098501221902252009D5A00208D4200D84F
:1024B00092E7995290E789180A78D0E7D178907816
:1024C000090201435218117894E7C04667010000E1
:1024D0000100040000B5B2235900435C1F221340E1
:1024E000012B01D00A4800BDED21425C002AF9D041
:1024F000B4225300EB21C35C425C9A42F2D91133FF
:10250000FF338E22C318510043500020EBE7C04632
:1025100001000400F0B55F4656464D464446F0B40F
:10252000B2246200815C051CC80685B0C30E012B75
:1025300008D0534E301C05B03CBC90469946A2468C
:10254000AB46F0BDED27EE5D002EF2D0EA202B5C0D
:10255000012B73D0F8242C590022B421B323002777
:10256000924648005A00464E0297B94680460027D8
:1025700093462278002ADDD06378042B3FD0052BC8
:102580000ED0022B01D0A418F3E7ED2160796B5C2B
:102590009842F8D0E378A278180210432418E8E7AC
:1025A0004346E95CB942EED1A3788F2119408020DF
:1025B000019108423BD10120884003905B46E95CD1
:1025C00049453ED002988145DDD10399484653469E
:1025D00002900B42D7D1CA4382214B00E858842194
:1025E0001040E85048002B5801991A402A50281CE6
:1025F00000F016FE227849460291A418B9E7E07867
:1026000043468146A778E85C00218A468742BAD1D2
:102610005B46E95C8945B6D1E8191130FF30027894
:102620004E460670029222780026A418A1E70F20D9
:1026300080230840590281400391BFE7FC216C5878
:102640008AE782214B00EA58039984200A43EA5022
:102650004300EA58281C8A43EA50211C00F050FD30
:10266000281C019900F0B4FD281C019900F0F2FD2E
:1026700003985246024392462278A41879E7C0464E
:1026800001000400F8B55F4656464D464446F0B496
:10269000B2225100041C405CC30628D1B326750049
:1026A000635D002B2AD0EA23E75C012F00D105E10E
:1026B000F8256559002680228221B24693464F00B4
:1026C0002A78002A0BD06B78042B00D18AE0052BE6
:1026D00067D0022B59D0AD182A78002AF3D1B32045
:1026E0004600ED21655CA45D0020A54200D0754840
:1026F0003CBC90469946A246AB46F8BDED26A35594
:10270000E925675D012F28D98023822259020125FE
:1027100056000127884608E04146A940194212D1D7
:10272000E922A35C01359D4217D2381CA359A84069
:102730000342F1D0291C201C00F072FD4146A35930
:10274000A9401942ECD080212943201C00F068FDEB
:10275000E922A35C01359D42E7D35B4A82278421AD
:1027600086267B000025480077002550E551201C77
:10277000E250002100F0B2FCB3204600ED21655C80
:10278000A45D0020A542B2D1B2E7B3214B00687925
:10279000E35C83422AD0EE78A87833020343ED1835
:1027A0008EE75346002B96D1AE788F2006405A46CE
:1027B000324278D00F2380223340510299400B1CC3
:1027C000E059291C0343E351201C00F099FC201C14
:1027D000311C00F0FDFC201C311C00F03BFD2A7870
:1027E000AD1879E7E978AD188A4675E7ED216354AD
:1027F0002879EB2388263549E05472000023A3543E
:1028000089206354324A8A2146004800A355A354C4
:10281000304E23548B2230485100A3556354E9268F
:102820002354A25D012A26D9802001264202B04607
:10283000914608E04A46B2401A4212D1E920235C90
:1028400001369E4217D24146E359B1400B42F1D0C6
:10285000201C311C00F0E4FC4A46E359B2401A4205
:10286000ECD059463143201C00F0DAFCE920235C0F
:1028700001369E42E7D31449842686220023700045
:10288000E151510023506350201C012100F026FC2F
:10289000EE7972060AD5EE23E05A01220243E25293
:1028A0002A78AD1818E70123B34089E7EE22A65A2B
:1028B00001218E43A6522A78AD180DE7FC20255839
:1028C000F8E6C0460100040001000100110100000B
:1028D00013010000150100001701000070B5B222BD
:1028E0000D1C5100041C405CC306DB0E08D1B32351
:1028F0005E00A35B012B37D0022B4AD02D4870BD60
:10290000022BFBD1B4225000235C8F21194080237D
:102910000B4223D101268E40ED22A05C0028EDD091
:102920000B07EBD08222500023583342E6D0B3226B
:102930005000235A002BE1D1002D30D186235800BE
:10294000225800203242DAD1201C00F001FD842000
:102950004200A158281CB143A150D0E70F260E40D9
:102960005B02B3401E1CD7E7236C002B02D0201C57
:10297000291C9847EE23002D05D0E05A0225054377
:10298000E5520020BBE7E25A02218A43E2520020CE
:10299000B5E7094E201CA15D00F09CFBAFE7201CB1
:1029A00000F07EFC84235D00615900200E436651D7
:1029B000A5E7C0460100040069010000F0B54746E4
:1029C00080B4B221041C4800265C7F239E4349D179
:1029D00090277F00E25B0025002A03D1281C04BC5D
:1029E0009046F0BD8E20450062590021201C00F069
:1029F000CDFD63591A186251E15B0D1AABB2E35376
:102A0000351C002BEAD1E823E25C002A11D0271CF8
:102A1000224DA837984608CF002B07D0F969201C13
:102A200002229847A84226D14146625C013696426E
:102A3000F1D3B2235D00675D60221740402F07D1BC
:102A4000A368002B04D0201C0121984700281DD02A
:102A5000201C802100F024FC902000254300E5523A
:102A60000025BBE7922671006218201C002100F0AF
:102A70008DFD0025B2E7051EB0D0201C802100F09E
:102A80000FFC902200265700E653A7E7201C802168
:102A90000022002300F0E8FD00259FE7020004006B
:102AA000F0B5474680B4041C072A31D84A48920042
:102AB00083589F46E823E25C002A13D0261C474F28
:102AC000A8360025984608CE002B08D0F169201CB6
:102AD00003229847B84200D069E04146625C013564
:102AE0009542F0D390204600A25B4023402A00D8B4
:102AF000131C8E20450062598021201C00F0B4FD7B
:102B00006659902133184F006351E25B101AE0536D
:102B1000002004BC9046F0BD201C802100F018FC71
:102B2000F6E72568201CA847F2E76668201CB04736
:102B3000EEE7B2225700E05D7F239843BAD1EC2242
:102B4000A15C4FB2002FE3DA1940A154201C00F021
:102B5000B3FADDE7E821625C002A13D0261CE823E3
:102B60001E4FA8360025984608CE002B07D0F169E5
:102B7000201C04229847B84219D14046225C0135F6
:102B80009542F1D3B2256B00E15CCA091AD18E21BE
:102B900090274A007E00A258A35B201C002100F071
:102BA000F3FCB5E7201C002100F0D2FBB0E70028C1
:102BB000AED0201C8021902600F072FB002573000F
:102BC000E552A5E78E235D006259201C00210023F9
:102BD00000F0DAFC9CE7C046B84B0000020004009D
:102BE000F0B5474680B4061CB2204300F21800211D
:102BF000301C00F09DFCB2225700F55D301CE90945
:102C0000B52400F0E3FA6100725A90204300F252BA
:102C1000E823F25C002A12D0351C6B4FA835002443
:102C2000984608CD002B07D0E969301C012298474F
:102C3000B84219D14146725C01349442F1D3B227B3
:102C40007D00735D5C06A30F19D0022B1FD0301CD2
:102C5000802100F025FB902100224D0072530024BA
:102C6000201C04BC9046F0BD041EF9D0301C80210D
:102C700000F016FB902200255700F553F0E7534C67
:102C8000335D0B2BE3D8524998000B589F46B3682D
:102C9000002BDCD0301C01219847041ED7D1B52170
:102CA0004B00F05A002800D187E0775DFD09D7D0AE
:102CB00090204200B25A4023402A00D8131C8E2094
:102CC000450072598021301C00F0CEFC71599027CC
:102CD0000A187B007251F55A291AF152C0E7346A7A
:102CE000301CA047041EB2D10023301C80210022DA
:102CF00000F0BAFCB36C002BB2D0301C9847AFE7A1
:102D0000F269301C9047041EA1D1D1E7B769301C8D
:102D1000B847041E00D09AE70023301C802100220F
:102D200000F0A2FC736C002BE7D199E77569301CA9
:102D3000A847041E00D08AE7BAE7301C002188E7C4
:102D40003169301C8847041E00D080E7B0E7B2200C
:102D50004300F45CE20600D079E7B3235C00375D02
:102D6000802251423943EC257155301C80210022CC
:102D7000002300F079FC002472E7726A301C012104
:102D80009047041E00D062E70023301C80210022FF
:102D900000F06AFCF36C002BAFD161E7776A301C5E
:102DA0000021B847041E00D051E7EDE7F568301C5C
:102DB000A847041E00D04AE77AE7301C8021002291
:102DC000002300F051FC4BE7020004006501000005
:102DD000D84B0000F0B5474680B40124EE23C4521E
:102DE000EC210023061C4354ED2033548222174D5E
:102DF000842486205700610042007350B350F5517F
:102E0000E823F25C002A12D0351C114FA8350024AB
:102E1000984608CD002B07D0E969301C0E22984750
:102E2000B84207D14246B25C01349442F1D304BCAB
:102E30009046F0BD0028FAD0301C802100F030FA16
:102E4000902000254700F553F1E7C046010001003E
:102E50000200040008B5B2214B00C218002100F0A6
:102E600067FB08BD38B5041C90204300E25A40239C
:102E7000402A00D8131C8E2045006259201C802156
:102E800000F0F2FB62599023111861515D00625B02
:102E9000111A615338BDC04638B5041C8E20450058
:102EA0006259201C002100F071FB62599021131817
:102EB00063514B00E25A101AE05238BD08B5802128
:102EC0000022002300F0D0FB08BDC04608B59221C7
:102ED0004B00C218002100F059FB08BD10B580213D
:102EE000041C00F0DDF9902000224300E25210BDE6
:102EF00070B5B623151C0E1C5A000021041C01F0ED
:102F000013FA2B7BE922A354274A8021A26564503F
:102F1000002B02D08420E26524502449244B25480C
:102F2000254A2160E3602549254B6060626221618A
:102F30002448A361244A2549EB6B6061E261216268
:102F4000002B29D023652B6C002B2AD06A6A2969B3
:102F50006365AB6A2264A162AA69E96A6869A363CE
:102F60002B6A2263E1636A6B3168E0626363286BFA
:102F7000F023AD6BA264E1507268B1686064E564EF
:102F8000F420F82522506151F068356980225600FE
:102F9000FC23A551E05070BD0D4B23652B6C002B1D
:102FA000D4D10C4BD2E7C046A12A0000E12B00008F
:102FB00015230000BD290000DD280000B923000012
:102FC00085260000E9220000D52400001525000018
:102FD0000D2300001123000030B5E824035D072B0A
:102FE00001D9074830BD1D1C2A35AD0029501D1CD4
:102FF0003235A90001330A5003550020F2E7C046DC
:103000000B00040010B5E924045D64008C4201D279
:10301000054810BD0C1C16342031A4008900225034
:103020000B500020F5E7C046030001007047C04682
:103030007047C046027B3F23510088180001D430FE
:10304000FF3098438030704700B58C235A00835876
:103050001B6A002904D1196804480840186000BDA3
:1030600019688022500208431860F8E7FFFFFEFF4E
:1030700000B58C23EE215A00435A8258990704D593
:10308000126A024811680840106000BDFFFFFDFF92
:1030900000B58C235A0083581B6A002905D1186893
:1030A00080218A0002431A6000BD19680148084067
:1030B0001860F9E7FFFDFFFF8C235A0083587F203B
:1030C0001B6A1A6882431A601868802202431143FF
:1030D00019607047004870470100040000B58C2358
:1030E0005A0083581B6A002902D10349596200BD66
:1030F00002485862FBE7C04603000080FF030080DF
:10310000F0B557464E464546E0B48C268A787300A3
:10311000C3580F2515406F00D40958684A793E19E5
:103120000C798146120218682243F5004519101CDB
:1031300077003F303F26B043CC7882460320160408
:103140002040012832D01C69A402200C8046802433
:10315000E0054446204330432860FC001869A4463B
:10316000CC44041C60460460426018690137804604
:10317000D04444461C61C97803200140012920D075
:1031800019698C02210C8024E40521430E436E60F2
:103190001869FE004E44306072601A695546AF18D7
:1031A0001F611CBC90469946A246F0BD186980027A
:1031B000040CA0468820C4054046044334432C60D8
:1031C000CBE7186988248102090CDDE77047C04607
:1031D00030B58C246300C258802510680F220A4045
:1031E00029400B1C5D1EAB415400E418E300C318DA
:1031F0001C680A4804401C60002A09D0002908D134
:103200005A6880210D0610402C4305431C605D6008
:1032100030BD596808405860FAE7C046FFFFFFBF5D
:1032200000B58C225300C2580F20084010D0D3683C
:10323000400013610B06D90F12684318D800131809
:1032400019688022D0050143196059680843586005
:1032500000BDC04630B58C225300C4580F220A402E
:10326000256850000B0616D50130C300EB185D68C9
:103270001A680A49246A0A4029401A6059600125DF
:10328000A46985402C4201D004330A1C80204105EA
:103290000A431A6030BD1301E8E7C046FFFFFFDFB5
:1032A00070B58C22540080230F220A401940005927
:1032B0000D1C6B1E9D41540006686519EB00F31848
:1032C000002A07D11A68002A1CDB8024A5052A439E
:1032D0001A6070BD1E68002E21DB026A8020850501
:1032E0002E431E604D1EA941D0696418E0400121A3
:1032F0000142EED0586800281EDB8022940520434E
:103300005860E6E70121A9400D1C016A486928437D
:1033100048614E692E42FCD10D621A68D5E7012240
:10332000AA40151C026A50692843506156692E4212
:10333000FCD115621E68D1E7A1400C1C51692143E4
:10334000516156692642FCD114625868D5E7C046DF
:10335000F0B55F4656464D464446F0B48C246200B4
:10336000825880230F2455680C401940081C431EC6
:103370009841AB466500281816684700C300BC4654
:10338000F318002C3BD0204E5F681C683740344057
:103390005F60BA46176A1C60BE690127B0463E1CD2
:1033A00086404746374201D004335446802778058B
:1033B00004431C60002913D056690135EE400121F9
:1033C000314207D08027380604431C605369A94066
:1033D0008B4353613CBC90469946A246AB46F0BD38
:1033E0000A4A61461440CF005D461C60E8194668F1
:1033F0008022310415060D432C431C60EAE719684E
:10340000014E0E401E60E5E7FFFFFFDFFFFF00FCFF
:10341000F0B58C256C000059151F066A341C243445
:103420000D2D09D90120424237480025002B0DD12E
:1034300025682A402260F0BD344FAD007F59BF4659
:103440008021334A0D060020002BF1D027683D4330
:103450002560F0E78020C5052E4A0020E6E701221E
:10346000524200250020E1E70F250D400906341CDB
:10347000CF0F6E00F11901268E40311C002D0ED1A8
:10348000042A3CD08026244A3502002B12D0C2697F
:103490001143C161002027683D432560CBE7002B25
:1034A0000DD0C36980251943C161042A24D0AD0120
:1034B0000020F0E7C3698B43C3610020B8E7C5690A
:1034C000F1430D40C561042A0CD0C569134B294056
:1034D000C161C169124E19404B1E99414A423243A3
:1034E0000020A5E7C2690F4F17407A1E97410E4A88
:1034F0007842024300209BE76D010020CBE7802744
:103500000A4AFD01C1E7C04601000400984C0000D2
:10351000FFFFFF7FFFFFFFBFFF7FFFFFA8AAAAAA51
:10352000FFDFFFFF54555555FFEFFFFFFFBFFFFFC4
:1035300038B58C25031C0F2468001B580C400D0661
:103540006400E90F65181868EC0004195D682368C9
:10355000991C1943880005D50A490B402360A368CC
:103560001940A160A968101C082200F0D9FE60680B
:10357000830E98066060A9688D022A0C1043606073
:10358000082038BDFFFFFFDF00207047F0B55F4621
:1035900056464D464446F0B40F270F408C247B001E
:1035A00066009B46802386590B409A46591E8B41E4
:1035B0005B443468716883B05D00D800A946241864
:1035C0000191002F04D00125B1699D4029423ED1CF
:1035D000658801984946AB05CD00451969689B0D82
:1035E000C81A80462968101C424600F099FE2168DE
:1035F0008A0E93062360002F16D0306A51464A1E69
:103600009141C7695944CF4001223A420CD08369A5
:10361000B361B069C84002421DD04D460135019AE0
:10362000E9006368551804346A682F68802016041E
:10363000BD0202063243290C0A431343404623606D
:1036400003B03CBC90469946A246AB46F0BD012370
:1036500004349944BCE748460138019E043CC70045
:103660002368F519E0E7C046F0B55F4656464D467B
:103670004446F0B485B08C277E0001920F2780224B
:103680000A400F408659111C1D1C7B0099464B1E99
:103690009941494434687368C800904624184A0028
:1036A0000293002F30D1211C0839086880238246FC
:1036B00018065346184308602068029B810E89064D
:1036C000D20021609B18AD051868AD0D2A04944600
:1036D0008202120C6046024311432160186801996E
:1036E0002A1C00F01DFE23689A0001D5002F1ED170
:1036F00080210E0633432360281C05B03CBC904655
:103700009946A246AB46F0BD336AD8699A46031C77
:10371000CB40012084461842CED053469869031C02
:10372000CB4060461842C7D004340132C4E7434658
:10373000591E8B414B44012277699A40141C3C432B
:103740007461D9E7F8B58C2254000459051CEA23AA
:103750000020E854266AA06160612068B060A76814
:10376000F760E927E95D66680A01002100F0DCFDE9
:10377000EA5D00211201606800F0D6FDF023EB58ED
:10378000A168D879890222680004090C01431160FC
:10379000A1683160D8797060A16840318802D97918
:1037A000000C090401435160A06808214030B0605A
:1037B000F160A068DB7980021904030C0B4393606D
:1037C000A0683061EB5D012B0AD980210C32042303
:1037D000CE05E92040C2295C01338F009F42F9D811
:1037E000E168266A2161074A074C084B0027B76148
:1037F0007761F26134627362306880250543356019
:10380000F8BDC046FF030000FF0300C0FF030080B7
:10381000F0B55F4656464D464446F0B456681379B7
:1038200085B002908946141C0196002B07D074487D
:1038300005B03CBC90469946A246AB46F0BD117B14
:1038400008014A0136189046B246D044121847463D
:103850002837151C67602835BB0707D04746BA1ABA
:1038600001320323571901353B42FBD1B6214E00EB
:10387000BA196260381C4946221CFFF739FB002147
:103880002822404600F050FD8C204246216843002B
:1038900001985762FA505346536011621060626893
:1038A000AE190391131C910607D06C3AFF3A551BD1
:1038B0003F22AB1901361A42FBD140468360803368
:1038C0006360C3604B469D682A78A846002A76D07C
:1038D00000230F253F21B4469B464646A946B846DD
:1038E0008A46271C331C00200096002A15D0191C7C
:1038F0001A784C789B18052CF7D18C783D7B4E4676
:103900003440A54259DD4E790C7935022C433F34C1
:1039100051468C430019002AE9D1009E834500D20C
:103920008346F378B2781802104336183278002AAA
:10393000D8D159463C1C664647464B008036F6189F
:10394000A3689E4200D972E7019A9D1BB01860607F
:10395000A560BC6D002C4FD0FB6D002B49D03C6E98
:10396000002C43D0786E00283DD0BE6E002E37D09C
:10397000F96E002931D03D6F002D2BD07A6F002ACF
:1039800025D0BB6F002B1FD0FC6F002C19D0039EDD
:1039900000233360381CFFF7D5FE8C2250003D58C1
:1039A0007F212E6A0298346880228C433460336809
:1039B0001A433260076000203AE7124838E70023D4
:1039C000BCE7114DFD67E2E70F49B967DCE70E4E32
:1039D0007E67D6E70C483867D0E70B4CFC66CAE731
:1039E000094BBB66C4E7084A7A66BEE7064D3D66EA
:1039F000B8E70549F965B2E7034EBE65ACE7C046D6
:103A00000A000400090004002D300000F8B55F46EC
:103A100056464D464446F0B4061C8C204300F758E9
:103A20003B6A1A6A1A62596A5C680A40904600D575
:103A300078E06304180F44468246A5053FD0E9228A
:103A4000B25C002A3BD0351C0120E9215835002406
:103A500081468B4618E0386A80210268480002429D
:103A600049D15046092803D1F969194200D094E0A0
:103A70000222A96A2B68301C98475A46B25C01346E
:103A800004355100A1421AD94B46A3404146194280
:103A9000F5D04A462242DED05046092803D1F969C2
:103AA000194200D071E0A96A2B680322301C9847A4
:103AB0005846325C013404355100A142E4D84746EF
:103AC0007A0004D5736B002B01D0301C9847F36B40
:103AD000002B0AD055460A2D04D80124354AAC40A3
:103AE000144202D1301C514698473CBC904699463E
:103AF000A246AB46F8BD3B682F481A689968024059
:103B00001A60084080229860B158B36D0122301CC1
:103B10009847386A8023026859000A4302605B466E
:103B2000F25CACE780221D68D20415421ED18021D0
:103B30004A04154208D0186802431A60B36B002B80
:103B400002D0301C0021984780239B041D4200D1E5
:103B50006FE73A6A11680B431360A90325D4336BEE
:103B6000002B00D165E7301C984762E71C68301CC9
:103B700022431A60FFF7E6FD301CFFF72BF9B36A0A
:103B8000002BB2D0301C9847AFE70522A96A2B68FA
:103B9000301C98475A46B25C71E72B680422A96A28
:103BA000301C98475B46F25C69E7F36A002BDAD178
:103BB0003FE7C04601060000FFFFFFDF38B5051CE8
:103BC0004878232801D9214838BD214C800020584D
:103BD00087460020002BF7D02C6A002CF4D0116807
:103BE000281C1A1CA047EFE70020002BECD0AC6A81
:103BF000002CE9D08878C978126809020143281C92
:103C0000A047E1E72B6B0020002BDDD0CC788A7831
:103C100021021143281C9847D6E7002B12D0EB6BEA
:103C20000020002BD0D0291C1031281C9847CBE74E
:103C30006B6B0020002BE9D1C6E7AB6B0020002B9B
:103C4000E4D1C1E7103515600020BDE70200040093
:103C5000D04C000070B5051C012A2CD0022A02D0DD
:103C6000344C201C70BDB2267400035D7F221340CB
:103C7000212BF5D1B4225300C35C087E984202D0B8
:103C80004C7E9C42ECD1B5208E2672004300AC588D
:103C9000EB5AB226E01AA85074008E222E1950005A
:103CA0004C6C2A18081C311CA047041ED9D1281CB2
:103CB000FFF704F9D5E7B2204300EB5C7F221A40FE
:103CC000212ACDD1B4225600AA5D0C7E944202D0A6
:103CD000487E9042C4D1922460008E222C18560057
:103CE000AC51DB0912D1B22674008E202B19420090
:103CF0004E6C081CAA18191C0023B047041EB0D132
:103D0000B5225300E95A0029ABD1D0E7B2204600D2
:103D10008E24902362005800AE190C6C2B18AA1840
:103D2000081C311CA047041E9BD1281CFFF79AF8E1
:103D300097E7C0460200040038B54C78032C0CD03D
:103D4000212C13D0012C01D00F4838BD446A002C1F
:103D500003D0111C1A1CA047F7E7C46A002C0BD033
:103D60008D78C97809022943A047EEE7103010602A
:103D700007221A800020E8E710680021402200F0A6
:103D8000D3FA0020E1E7C0460200040008B5A123F1
:103D90000371002341718371C37103724372837293
:103DA000C372012909D0002903D020290ED00B4865
:103DB0000BE0002A01D0012181710368017F021DFF
:103DC000181C0823FFF750FC002008BD02730223D3
:103DD000120A837242730148F7E7C04603000100EC
:103DE0004C207047F8B54F464646C0B40D68071CD6
:103DF0000C1C90468E684B68A90703D0472B01D84E
:103E0000474825E0281C03224B30483B934390430E
:103E10002060636000214822281C00F085FA414997
:103E20004148236A626A29646864A16AE06A2B6275
:103E30006A62236B626BA962E862A16BE06B2F6020
:103E40002B636A63A963E8637378042B04D0374853
:103E50000CBC90469946F8BD7379022BF7D13179A5
:103E60000129F4D8B07828763279012A1AD0E3688B
:103E700059780429EBD15A790A2AE8D1987900288F
:103E8000E5D19A786A7619781E795A18B14648456C
:103E900029D21178161C8C4671786244052916D0F7
:103EA0000130F4E73378F618331C31785A787618F5
:103EB000052A06D0042AF7D1287F0028D7D11C482C
:103EC000C6E7DA78032AEFD19E782E77F4E7F17807
:103ED0000229E5D1B1784EB2002E16DBE9761E79C3
:103EE0000130B146D3E7AB7E002BE8D0E87E002856
:103EF000E5D0616C381C00290CD02A1CFFF76CF847
:103F00000C4F676444462560A2E7A9761979013011
:103F10008946BCE707492A1CFFF75EF8F2E7C0466E
:103F20000A000400393D0000BD3B00000800040009
:103F300009000400553C000030B58C788568E40029
:103F40002C19656815608C788068E1000A5A002099
:103F50001A8030BD10B50168B3235C000B5D084AC0
:103F600084688A5CDB00E3189A70C3690024002B24
:103F700003D06531FF319847041C201C10BDC0469A
:103F80006701000070B582B0041C00236846B426A7
:103F900083807500605D4B7B984203D06E4D281C7A
:103FA00002B070BD012A24D0022AF7D1B2256B00DD
:103FB000E05C7F2630402128F0D16848225C092A45
:103FC000ECD1B5258E266B007600E35AA059B225B8
:103FD000C21A6800009222184D69081C111C6A461A
:103FE000A847051EDBD10099A151201CFEF766FFF2
:103FF000D5E7B2225200A35C1F251D40012DCDD173
:1040000060263340202B24D0A55AC0239F229543FD
:10401000DE00B542C2D15248235C222B00D191E090
:10402000232B00D17DE0212BB8D14E688E22530086
:10403000E650357869468D8090256A466B009288F7
:10404000E15A914200D9E252201CFEF70BFF0025F5
:10405000A5E74248235C0B2BA0D8424A9D00535948
:104060009F460D68B3204200AA5C0B6A0A73002BBE
:1040700007D06535FF35081C291C9847051E00D060
:104080008DE7201CFEF71AFF002588E7081CFFF7C4
:1040900061FF051E00D082E7A7E7922255008E231C
:1040A000B2226619580055008E2326506619580012
:1040B000221800234C69081C311CA047051C6EE720
:1040C00008689225097B6B00C154E2188E235E00BC
:1040D000A251B9E70B68B32672009D5C8868EE00B8
:1040E00081198878922292265500710058556218DD
:1040F000ECE7922255008E23B226601972005D0013
:1041000090236051A6185800621923180D69081CE5
:10411000311CA847051E00D041E7201CFEF7A2FE77
:104120003DE78D69002D15D0B2238E205E00420040
:10413000A319A218081C191C01ABA847051E00D022
:104140002DE779E7B2238E2568005E00A3192218B7
:104150004D6AEFE7044D22E702000400650100000C
:1041600067010000604D000003000400007AC000F9
:1041700030307047F0B557464E464546E0B4071C10
:104180000E68C8680C1C8046B1070BD0217A6368A2
:104190000531CA00934206D257481CBC9046994646
:1041A000A246F0BD6368311C283B28312160636062
:1041B00000212822301C00F0B7F822683760B26076
:1041C000207A6568131C9446C200D318A91A23608C
:1041D0006160980709D00139032000E0291C0133F0
:1041E0004D1E1842FAD1236061606046002100F044
:1041F0009BF8257A002D0CD000252269B068E900D3
:1042000040185118082200F08BF8237A0135AB4290
:10421000F3D86369002B14D0A269002A11D033614E
:10422000236A7261656AE269F361236BB261356288
:10423000002B16D0736241464878042803D02F48DB
:10424000ABE72F48A9E74D79032DF8D18878707333
:10425000CA7932730A7842445378212B03D0294813
:104260009BE7294BE6E772600B791578002B28D085
:1042700000200F21551981468A4603E0012291440E
:104280004B451AD929782A1C6D1851780529F5D182
:10429000D1780329F2D191784BB2002B1EDBF17358
:1042A000E26A002A17D0534619404900331C381CD3
:1042B000FEF7A8FE41460B79E0E7002801D013483D
:1042C0006BE7616B381C002911D0321CFEF784FEAD
:1042D0000F4E666361E742461379CFE7B173A26A76
:1042E000002AF8D05046014049000131DEE7084974
:1042F000321CFEF771FE50E70A00040008000400BB
:104300000300010006000400393F0000090004001A
:10431000853F000010B500F00BF8FCF7A7FB10BDBF
:1043200010B500F0BAFA10BD10B500F0CCFA10BD0F
:1043300037B5184C18492200002000F05BF88023A4
:1043400080225B00D2000021200000F02FF8134CE7
:10435000134D22002900012000F04CF88023802218
:104360005B00D2000021200000F020F80D4B1B68FC
:104370000193022B0DDD0C4C29002200022000F0DD
:1043800039F8802380225B00D2000021200000F059
:104390000DF837BD44020010904D0000800200105F
:1043A000924D0000944D0000BC020010F0B5C568AD
:1043B0000124AE0710D08026B600B24207D0802676
:1043C000F600B2420AD080267600B24204D1084FED
:1043D0005E1E0124BE4204D92000F0BD010023006E
:1043E0002431154301610160C361C5600024F3E716
:1043F000FEFFFF00F7B50D0001901000140000F063
:1044000033F82B78722B1FD0772B04D0612B26D159
:104410000823144A01E0042302220220691C032716
:1044200084460426012508782B2810D0622813D052
:10443000E260019A62611B0704D50222002120007C
:1044400000F062F82000FEBD00230122E5E760468F
:104450003A4303430131E6E732432B43FAE70024B2
:10446000F0E7C04602800000F0B5C46889B00500DE
:10447000A30722D0230718D44769066900F022F861
:10448000380000F035FA230502D5300000F092F92B
:104490000B4BA40DA4059C4207D12022296A684633
:1044A00000F035FA684600F0CBF83C2200212800E5
:1044B000FFF73AFF002009B0F0BD01204042FAE7C3
:1044C000000080AD73B5002814D1040005003C261F
:1044D0000B4B1B680193019B9C420EDA300060433A
:1044E000084BC01800F0E2F8002801D001256D4209
:1044F0000134F0E700F0DAF80500280076BDC04688
:10450000944D000044020010F7B5394BC568040013
:104510000E0000921D4201D1022741E043691800BC
:10452000019300F0EBF9071EF6D1009B012B28D078
:10453000022B2BD0002BEFD1002EEDDBAB0404D5EA
:104540002368E26A9A4200D2E362A06986420EDBE7
:10455000E26A2368934200D213002269191800927C
:10456000891A8E4203DC216B421896422EDB2023EF
:104570001D430023A662A36063601E4B1D40E560DF
:104580000EE0200000F038F83618D5E7019800F06A
:10459000B2F9E268002805DA802301271343E360BB
:1045A0003800FEBDE16A2368994200D90B00A16979
:1045B0005B1821695B1A920603D5A26A934200DA5E
:1045C0001300834200DA0300F618B5E7361AAA078B
:1045D00001D5711AA160EA0703D5009A9B1AF31A54
:1045E0006360009B9E19202326609D43C5E7C0465B
:1045F00003001000BFCFF7FFC3689A0705D121223F
:1046000001200E4B40421A607047202219030AD540
:10461000134202D0806A0138F6E7036882690069B4
:104620009B18181AF7E7134201D0806AECE7036879
:10463000826900699B18181AE6E7C046400200101C
:1046400010B5040000F006F80100200000F059F950
:1046500010BDFFFF032110B5421C084218D1114CB8
:104660000368114959189943214219D0DCB2411C01
:10467000002C0BD0FF242402811C234206D0FF21F2
:1046800009040B40591E8B41C318D91C881A04E039
:10469000431C0078002801D1981A10BD1800DCE7EF
:1046A0000430DDE780808080FFFEFEFE70B50326CB
:1046B000C36804001E4011D09B0611D5856A00F026
:1046C0008FF8E268094B20001340E36000F010F817
:1046D0000022060029002000FFF716FF300070BD01
:1046E000036882699D180369ED1AEAE7FFCFFFFFAF
:1046F00070B5040005690168C26A124BC0680340C6
:10470000E36082230340022B02D00120404270BDAF
:1047100080235B021840FAD0914200D211008D42F2
:1047200008D10020E268084BE56213402560A060D4
:10473000E360ECE7491B2200280000F007F800289E
:10474000EFD0E2E7FFFFF7FFFFFFFEFFF7B5D56809
:1047500001900E0014005769EB0205D510233800B4
:104760001D4300F0C8F8A061104B1D420FD0A16995
:10477000380000F0C9F8002806DA80230120E2683A
:1047800040421343E3600FE0094B1D40E5603200F7
:1047900001993800FCF76CFE43005B08F61AA36928
:1047A0009E19A6610028E8D1FEBDC0461000020097
:1047B000EFFFFDFF10B5002811D080210C3849050E
:1047C00001608268002A0AD013688B4207D14368CF
:1047D000546803331B19436093688360F1E710BD8D
:1047E000202310B50400C2689A43E2608369826A9C
:1047F00093420CD0FFF77CFFE368074A1A4010236E
:104800001343E360A36AA3612369E3622360E26860
:10481000024B1340E36010BDEFCFFFFFBFBFFFFFB0
:1048200003000B4321D4002931D00122D207030910
:1048300001E0090112099942FBD9430801E049004E
:1048400052089942FBD900E04908401A07D3524167
:10485000FAD301461046704749084018F7D292181B
:10486000FAD34018014610467047CB0F00D049429A
:10487000021000D54042534008B5FFF7D4FF0CBCEE
:10488000521000D34042002A00D549421847F4464E
:10489000002000F001F8604770478446830708D184
:1048A0008B0706D1131F04D304C904C0043BFBD2F9
:1048B0001A1D524205D0891A801A8B5C835401322A
:1048C000FBD1604670478446043A09D3830707D179
:1048D00009060B0A19430B0C1943043A02C0FCD217
:1048E000043203D001700130013AFBD160467047B9
:1048F0000120404270470120404270470120404261
:10490000704701204042704701204042704701201B
:104910004042704705010902A10185010901A1007A
:10492000050919012908150025019508750181025D
:1049300005010930093109381581257F750895036E
:104940008106C0C005010906A1018502750195080F
:10495000050719E029E71500250181029501750871
:104960008103950575010508190129059102950135
:10497000750391039506750815002568050719004C
:1049800029688100C005010904A1018503150025DE
:1049900001750195200509190129208102150025BD
:1049A000073500463B017504950165140501093979
:1049B000814205010901A100150027FF03000075D0
:1049C0000A950409300931093209358102C0150000
:1049D00027FF030000750A9502093609368102C0D7
:1049E000CC00FFFF12010002EF020140C91F870047
:1049F000000101020301FFFF040309042803410031
:104A00007300540065005200490043005300200029
:104A100046006F0075006E0064006100740069005C
:104A20006F006E001E0346004C00690070004D00D0
:104A30006F007500730065002F00460041004200C2
:104A400049000A03760033002E00300030034D0089
:104A50006F007500730065002F004B006500790042
:104A600062006F006100720064002F004A006F0056
:104A7000790073007400690063006B000E0353003B
:104A800065007200690061006C00FFFF084C0000C7
:104A9000644C00000000000000000000844C000096
:104AA0008C4C000000000000011122025F70617256
:104AB000616D65746572206572726F720A00000024
:104AC0005F5F4F4B5F5F0A005F756E6B6E6F776E57
:104AD00020636F6D6D616E640A0000005F756E6B20
:104AE0006E6F776E206572726F7220636F64650AF5
:104AF00000FFFFFFD0130000F8130000F8130000C0
:104B0000F8130000F8130000F8130000F813000079
:104B1000741300000C130000F81300004013000091
:104B2000F8130000F8130000F8130000F813000059
:104B3000F8130000F81300008C130000F8130000B5
:104B4000F8130000F8130000261300005A130000A9
:104B5000001BB7000001010000020100000301007A
:104B6000000401000005010000060100000B010126
:104B7000001201000013010000000000C02709001E
:104B800090051000C05C1500F0B31A00200B200047
:104B9000009F2400E0322900C0C62D00509731004C
:104BA000E06735007038390000093D0040164000CC
:104BB00080234300C0304600102B0000222B000051
:104BC0002A2B0000322B0000542B0000102B000079
:104BD000A42B0000182B0000AC2D00009C2D000021
:104BE0004E2C00007A2D00004E2C00004E2D0000AF
:104BF000402D00003A2D00002C2D00000C2D00004F
:104C0000002D0000DE2C00003530000011380000BF
:104C1000493000000D3A00004537000031300000F7
:104C200091300000B9300000DD300000013100009B
:104C3000CD310000D131000021320000553200009A
:104C4000A132000051330000D53000008D35000046
:104C500089350000313500006936000071300000F0
:104C600011340000D92F000005300000552E00003F
:104C7000652E0000992E0000BD2E0000CD2E0000F4
:104C8000DD2E00006D41000075410000E13D000097
:104C9000E53D00008D3D00006834000068340000F0
:104CA00024340000243400002434000024340000A4
:104CB0002434000024340000243400002434000094
:104CC0005E34000054340000403400005E340000C4
:104CD000D23B0000C63B0000E83B0000C63B0000A2
:104CE000043C0000C63B0000C63B0000C63B000081
:104CF000C63B0000C63B0000C63B0000C63B0000B0
:104D0000C63B0000C63B0000C63B0000C63B00009F
:104D1000C63B0000C63B0000C63B0000C63B00008F
:104D2000C63B0000C63B0000C63B0000C63B00007F
:104D3000C63B0000C63B0000C63B0000C63B00006F
:104D4000C63B0000C63B0000C63B0000C63B00005F
:104D50001A3C0000C63B0000303C00003A3C00001A
:104D60009C3F0000F2400000D4400000C040000022
:104D70009C3F00009C3F00009C3F00009C3F0000C7
:104D80009C3F00009A4000008C4000006240000000
:084D900072007700080000002A
:104D98000902640003010080FA090400000103000D
:104DA800000409211101000122CC0007058103102C
:104DB800000A080B010202020005090401000102B1
:104DC8000200050524001001052401010204240243
:104DD80002052406010207058303100002090402E4
:104DE80000020A00000507050102400000070582CD
:0C4DF8000240000000FFFFFF8C4A00009A
:0400000300000117E1
:00000001FF
